:100000000C945D000C9485000C9485000C94850084
:100010000C9485000C9485000C9485000C9485004C
:100020000C9485000C9485000C9485000C9485003C
:100030000C9485000C9485000C9485000C9485002C
:100040000C9466020C9485000C9434020C940E02FD
:100050000C9485000C9485000C9485000C9485000C
:100060000C9485000C9485000000000024002700FB
:100070002A0000000000250028002B0004040404CE
:100080000404040402020202020203030303030342
:10009000010204081020408001020408102001021F
:1000A00004081020000000080002010000030407FB
:1000B0000000000000000000D20311241FBECFEF9B
:1000C000D8E0DEBFCDBF11E0A0E0B1E0E2E5F8E0AE
:1000D00002C005900D92A232B107D9F721E0A2E249
:1000E000B1E001C01D92AC3CB207E1F710E0CDE5F4
:1000F000D0E004C02197FE010E942104CC35D10735
:10010000C9F70E94B0020C9427040C940000E1EBA4
:10011000F0E02491EDE9F0E09491E9E8F0E0E49179
:10012000EE23C9F0222339F0233001F1A8F4213065
:1001300019F1223029F1F0E0EE0FFF1FEE58FF4FCA
:10014000A591B4912FB7F894EC91811126C09095A8
:100150009E239C932FBF08952730A9F02830C9F023
:10016000243049F7209180002F7D03C0209180002A
:100170002F7720938000DFCF24B52F7724BDDBCFEE
:1001800024B52F7DFBCF2091B0002F772093B000B6
:10019000D2CF2091B0002F7DF9CF9E2BDACFAF9236
:1001A000BF92CF92DF92EF92FF920F931F93CF9364
:1001B000DF936C017B018B01040F151FEB015E01C6
:1001C000AE18BF08C017D10759F06991D601ED915B
:1001D000FC910190F081E02DC6010995892B79F7FA
:1001E000C501DF91CF911F910F91FF90EF90DF90AC
:1001F000CF90BF90AF900895FC01538D448D252F73
:1002000030E0842F90E0821B930B541710F0CF96B0
:10021000089501970895FC01918D828D981761F0E2
:10022000A28DAE0FBF2FB11D5D968C91928D9F5FF9
:100230009F73928F90E008958FEF9FEF0895FC01D8
:10024000918D828D981731F0828DE80FF11D858D8B
:1002500090E008958FEF9FEF0895FC01918D228D1E
:10026000892F90E0805C9F4F821B91098F739927A3
:1002700008958FE291E00E942D0121E0892B09F47D
:1002800020E0822F089580E090E0892B29F00E94E1
:10029000390181110C9400000895FC01A48DA80F70
:1002A000B92FB11DA35ABF4F2C91848D90E00196B8
:1002B0008F739927848FA689B7892C93A089B189D8
:1002C0008C91837080648C93938D848D981306C079
:1002D0000288F389E02D80818F7D80830895EF92DD
:1002E000FF920F931F93CF93DF93EC0181E0888FF0
:1002F0009B8D8C8D98131AC0E889F989808185FFC0
:1003000015C09FB7F894EE89FF896083E889F98961
:1003100080818370806480839FBF81E090E0DF9163
:10032000CF911F910F91FF90EF900895F62E0B8DB6
:1003300010E00F5F1F4F0F731127E02E8C8D8E1171
:100340000CC00FB607FCFACFE889F989808185FFD8
:10035000F5CFCE010E944D01F1CFEB8DEC0FFD2FBB
:10036000F11DE35AFF4FF0829FB7F8940B8FEA8993
:10037000FB8980818062CFCFCF93DF93EC01888DA2
:100380008823B9F0AA89BB89E889F9898C9185FD10
:1003900003C0808186FD0DC00FB607FCF7CF8C919E
:1003A00085FFF2CF808185FFEDCFCE010E944D0108
:1003B000E9CFDF91CF9108953FB7F894809127015D
:1003C00090912801A0912901B0912A0126B5A89BFE
:1003D00005C02F3F19F00196A11DB11D3FBFBA2FD7
:1003E000A92F982F8827BC01CD01620F711D811D97
:1003F000911D42E0660F771F881F991F4A95D1F71C
:100400000895FC0101900020E9F73197AF01481BE6
:10041000590BBC018FE291E00C94CF001F920F9218
:100420000FB60F9211242F933F934F935F936F93C7
:100430007F938F939F93AF93BF93EF93FF938FE23D
:1004400091E00E944D01FF91EF91BF91AF919F917B
:100450008F917F916F915F914F913F912F910F906D
:100460000FBE0F901F9018951F920F920FB60F920C
:1004700011242F938F939F93EF93FF93E0913F016C
:10048000F09140018081E0914501F091460182FDAB
:100490001BC09081809148018F5F8F73209149012B
:1004A000821741F0E0914801F0E0E15DFE4F958F49
:1004B00080934801FF91EF919F918F912F910F9021
:1004C0000FBE0F901F9018958081F4CF1F920F924E
:1004D0000FB60F9211242F933F938F939F93AF9357
:1004E000BF938091230190912401A0912501B091A7
:1004F00026013091220123E0230F2D3758F5019674
:10050000A11DB11D2093220180932301909324010A
:10051000A0932501B0932601809127019091280195
:10052000A0912901B0912A010196A11DB11D8093CE
:10053000270190932801A0932901B0932A01BF912C
:10054000AF919F918F913F912F910F900FBE0F9080
:100550001F90189526E8230F0296A11DB11DD2CF3A
:10056000CF93DF93CDB7DEB7A1970FB6F894DEBF78
:100570000FBECDBF789484B5826084BD84B58160A0
:1005800084BD85B5826085BD85B5816085BD80915E
:100590006E00816080936E001092810080918100D6
:1005A00082608093810080918100816080938100CE
:1005B000809180008160809380008091B100846090
:1005C0008093B1008091B00081608093B0008091F1
:1005D0007A00846080937A0080917A0082608093B0
:1005E0007A0080917A00816080937A0080917A000D
:1005F000806880937A001092C100EDE9F0E02491C8
:10060000E9E8F0E08491882399F090E0880F991F41
:10061000FC01E859FF4FA591B491FC01EE58FF4F42
:10062000859194918FB7F894EC91E22BEC938FBF66
:10063000E0913F01F091400182E08083E0913B0135
:10064000F0913C011082E0913D01F0913E0180E18A
:10065000808310924701E0914301F091440186E0CC
:100660008083E0914101F09142018081806180832B
:10067000E0914101F0914201808188608083E091A6
:100680004101F0914201808180688083E0914101C5
:10069000F091420180818F7D808382E191E00E9410
:1006A00001028FE191E00E94010210922C01109250
:1006B0002B0110922E0110922D0180E00E948700E4
:1006C0009AE0492E512C612C712C22242394312C38
:1006D00000E010E020912D0130912E012F5F3F4F5F
:1006E00030932E0120932D0150E040E019A27E01AD
:1006F00081E2E80EF11CCA01B901A30192010E9436
:10070000FF03605DF70162937F012115310541050B
:10071000510589F7309719F0CF010E9401028FE14E
:1007200091E00E94010280912B0190912C01910196
:10073000281B390BC90130932C0120932B010E94F7
:1007400087000E94DC014B015C0188EEC82E83E02B
:10075000D82EE12CF12C0E94DC01681979098A0954
:100760009B09683E734081059105A8F331E0C31AE7
:10077000D108E108F10888EE880E83E0981EA11CDC
:10078000B11CC114D104E104F10429F701151105CC
:1007900009F4A0CF0E943901882309F49BCF0E945D
:1007A000000098CFEFE2F1E01382128288EE93E02E
:1007B000A0E0B0E084839583A683B78384E091E0D2
:1007C0009183808385EC90E09587848784EC90E02A
:1007D0009787868780EC90E0918B808B81EC90E00E
:1007E000938B828B82EC90E0958B848B86EC90E0EF
:1007F000978B868B118E128E138E148E0895A1E224
:100800001A2EAA1BBB1BFD010DC0AA1FBB1FEE1F8A
:10081000FF1FA217B307E407F50720F0A21BB30BD5
:10082000E40BF50B661F771F881F991F1A9469F751
:1008300060957095809590959B01AC01BD01CF01AD
:100840000895EE0FFF1F0590F491E02D0994F894A0
:02085000FFCFD8
:10085200000000006F01CF00FC00BC012D010B0164
:100862001F0148656C6C6F20576F726C6421000D1C
:020872000A007A
:00000001FF
